:0100000000FF
:0100010008F6
:0100020000FD
:0100030002FA
:0100040000FB
:0100050000FA
:0100060002F7
:0100070004F4
:0100080000F7
:0100090000F6
:01000A0002F3
:01000B0000F4
:01000C0009EA
:01000D0000F2
:01000E0002EF
:01000F0008E8
:0100100000EF
:0100110000EE
:0100120008E5
:0100130002EA
:0100140000EB
:0100150004E6
:0100160001E8
:0100170000E8
:0100180000E7
:0100190008DE
:01001A0000E5
:01001B0002E2
:01001C0004DF
:01001D0001E1
:01001E0000E1
:01001F0006DA
:010020000AD5
:0100210000DE
:0100220005D8
:0100230000DC
:0100240001DA
:0100250000DA
:0100260000D9
:0100270001D7
:0100280008CF
:0100290002D4
:01002A0004D1
:01002B0000D4
:01002C0001D2
:01002D0000D2
:01002E0002CF
:01002F0008C8
:0100300000CF
:0100310002CC
:0100320000CD
:0100330008C4
:0100340001CA
:0100350000CA
:0100360000C9
:0100370005C3
:0100380008BF
:0100390000C6
:01003A0004C1
:01003B0002C2
:01003C0000C3
:01003D0000C2
:01003E0009B8
:01003F0000C0
:010040000AB5
:0100410000BE
:0100420005B8
:0100430000BC
:0100440001BA
:0100450000BA
:0100460001B8
:0100470000B8
:0100480000B7
:010049000AAC
:01004A0000B5
:01004B0004B0
:01004C0000B3
:01004D0000B2
:01004E0001B0
:01004F0008A8
:0100500000AF
:0100510008A6
:0100520002AB
:0100530008A4
:0100540000AB
:0100550002A8
:0100560000A9
:0100570001A7
:0100580000A7
:0100590002A4
:01005A0000A5
:01005B00099B
:01005C0000A3
:01005D0002A0
:01005E00049D
:01005F00019F
:01006000009F
:01006100009E
:010062000A93
:01006300009C
:010064000A91
:01006500009A
:010066000891
:010067000098
:01006800088F
:010069000096
:01006A000491
:01006B000094
:01006C000291
:01006D00048E
:01006E000091
:01006F00018F
:01007000008F
:010071000886
:01007200028B
:010073000884
:01007400018A
:01007500008A
:010076000089
:010077000088
:01007800087F
:010079000086
:01007A000481
:01007B000282
:01007C000083
:01007D000181
:01007E000081
:01007F000080
:01008000007F
:010081000876
:01008200007D
:01008300027A
:01008400007B
:01008500007A
:010086000A6F
:010087000078
:010088000077
:010089000076
:01008A000273
:01008B000074
:01008C000172
:01008D00086A
:01008E000071
:01008F00046C
:01009000006F
:010091000866
:01009200026B
:010093000864
:010094000269
:010095000862
:010096000267
:010097000860
:01009800085F
:010099000066
:01009A000461
:01009B000064
:01009C000063
:01009D000260
:01009E00045D
:01009F00025E
:0100A000025D
:0100A1000856
:0100A200015C
:0100A300005C
:0100A400005B
:0100A5000951
:0100A6000059
:0100A7000157
:0100A8000255
:0100A900084E
:0100AA000154
:0100AB00084C
:0100AC000053
:0100AD00044E
:0100AE000051
:0100AF00014F
:0100B000004F
:0100B1000A44
:0100B200004D
:0100B3000943
:0100B400004B
:0100B5000446
:0100B6000049
:0100B7000642
:0100B8000047
:0100B9000244
:0100BA00083D
:0100BB000143
:0100BC00083B
:0100BD000042
:0100BE000041
:0100BF00063A
:0100C000003F
:0100C1000836
:0100C200023B
:0100C300003C
:0100C400003B
:0100C500003A
:0100C6000A2F
:0100C7000038
:0100C8000235
:0100C9000036
:0100CA000134
:0100CB00082C
:0100CC000132
:0100CD000032
:0100CE00022F
:0100CF000828
:0100D000002F
:0100D1000826
:0100D200022B
:0100D300002C
:0100D4000823
:0100D5000228
:0100D6000029
:0100D7000622
:0100D8000027
:0100D9000026
:0100DA000025
:0100DB000222
:0100DC000023
:0100DD000919
:0100DE000021
:0100DF00051B
:0100E000001F
:0100E100021C
:0100E2000815
:0100E300021A
:0100E400001B
:0100E5000416
:0100E6000118
:0100E7000414
:0100E8000017
:0100E9000016
:0100EA000213
:0100EB000014
:0100EC000211
:0100ED00080A
:0100EE000011
:0100EF00010F
:0100F000000F
:0100F100000E
:0100F200020B
:0100F300000C
:0100F4000902
:0100F500000A
:0100F6000009
:0100F7000800
:0100F8000007
:0100F90008FE
:0100FA000203
:0100FB0008FC
:0100FC000201
:0100FD0008FA
:0100FE000001
:0100FF0004FC
:0101000000FE
:0101010008F5
:0101020000FC
:0101030000FB
:010104000AF0
:0101050000F9
:0101060004F4
:0101070002F5
:0101080000F6
:0101090000F5
:01010A0008EC
:01010B0002F1
:01010C0000F2
:01010D0001F0
:01010E0000F0
:01010F0002ED
:010110000AE4
:0101110000ED
:0101120005E7
:0101130000EB
:0101140000EA
:0101150000E9
:0101160000E8
:0101170005E2
:0101180002E4
:0101190000E5
:01011A0001E3
:01011B0000E3
:01011C0000E2
:01011D0008D9
:01011E0000E0
:01011F0004DB
:0101200000DE
:010121000AD3
:0101220000DC
:0101230004D7
:0101240001D9
:0101250004D5
:0101260002D6
:0101270000D7
:0101280000D6
:0101290000D5
:01012A0008CC
:01012B0000D3
:01012C000AC8
:01012D0000D1
:01012E0005CB
:01012F0000CF
:0101300000CE
:0101310008C5
:0101320002CA
:0101330008C3
:0101340001C9
:0101350004C5
:0101360000C8
:0101370009BE
:0101380000C6
:0101390008BD
:01013A0002C2
:01013B0008BB
:01013C0000C2
:01013D0002BF
:01013E0000C0
:01013F0001BE
:0101400000BE
:0101410002BB
:0101420000BC
:010143000AB1
:0101440000BA
:0101450000B9
:010146000AAE
:0101470000B7
:0101480000B6
:0101490008AD
:01014A0000B4
:01014B0004AF
:01014C0000B2
:01014D0000B1
:01014E0000B0
:01014F000AA5
:0101500000AE
:0101510008A5
:0101520000AC
:0101530004A7
:0101540000AA
:0101550006A3
:0101560000A8
:01015700089F
:0101580000A6
:01015900089D
:01015A0000A4
:01015B0002A1
:01015C0000A2
:01015D0000A1
:01015E0000A0
:01015F000A95
:01016000009E
:010161000A93
:01016200009C
:01016300009B
:010164000892
:010165000099
:010166000098
:010167000691
:010168000096
:010169000A8B
:01016A000094
:01016B00088B
:01016C000290
:01016D00048D
:01016E000090
:01016F00028D
:01017000008E
:01017100028B
:010172000884
:01017300008B
:01017400008A
:010175000485
:010176000088
:010177000681
:010178000086
:010179000A7B
:01017A000084
:01017B000182
:01017C000082
:01017D000978
:01017E000080
:01017F00027D
:01018000007E
:010181000A73
:01018200007C
:01018300007B
:010184000179
:010185000079
:010186000870
:010187000176
:010188000076
:010189000075
:01018A000272
:01018B00086B
:01018C000072
:01018D000170
:01018E000070
:01018F00026D
:01019000006E
:01019100026B
:01019200006C
:010193000A61
:01019400006A
:010195000564
:010196000068
:010197000166
:010198000066
:01019900085D
:01019A000064
:01019B00065D
:01019C000062
:01019D00025F
:01019E000858
:01019F00015E
:0101A0000856
:0101A100025B
:0101A2000458
:0101A300005B
:0101A400005A
:0101A5000257
:0101A6000058
:0101A7000255
:0101A8000056
:0101A9000055
:0101AA00084C
:0101AB000251
:0101AC000052
:0101AD000051
:0101AE000A46
:0101AF00004F
:0101B000004E
:0101B1000845
:0101B200024A
:0101B300004B
:0101B400004A
:0101B5000643
:0101B6000048
:0101B7000641
:0101B8000046
:0101B9000243
:0101BA00083C
:0101BB000043
:0101BC00043E
:0101BD000041
:0101BE00043C
:0101BF00013E
:0101C000003E
:0101C1000A33
:0101C200003C
:0101C3000A31
:0101C400003A
:0101C5000435
:0101C6000137
:0101C7000433
:0101C8000036
:0101C9000035
:0101CA00082C
:0101CB000033
:0101CC00062C
:0101CD000031
:0101CE000030
:0101CF000827
:0101D000022C
:0101D1000825
:0101D200012B
:0101D3000427
:0101D400002A
:0101D5000920
:0101D6000028
:0101D7000621
:0101D8000026
:0101D9000A1B
:0101DA000024
:0101DB000221
:0101DC00081A
:0101DD000021
:0101DE00051B
:0101DF00001F
:0101E0000816
:0101E100021B
:0101E2000418
:0101E300011A
:0101E4000416
:0101E5000019
:0101E6000018
:0101E7000A0D
:0101E800080E
:0101E9000213
:0101EA000410
:0101EB000112
:0101EC000012
:0101ED000110
:0101EE000010
:0101EF00000F
:0101F000000E
:0101F1000A03
:0101F200000C
:0101F300010A
:0101F4000406
:0101F5000108
:0101F6000008
:0101F7000601
:0101F8000006
:0101F9000005
:0101FA000202
:0101FB0008FB
:0101FC000002
:0101FD000001
:0101FE0005FB
:0101FF0000FF
:0102000000FD
:0102010002FA
:0102020000FB
:0102030009F1
:0102040000F9
:0102050002F6
:0102060000F7
:0102070005F1
:0102080000F5
:0102090002F2
:01020A0008EB
:01020B0001F1
:01020C0004ED
:01020D0002EE
:01020E0008E7
:01020F0001ED
:0102100000ED
:010211000AE2
:0102120000EB
:010213000AE0
:0102140000E9
:0102150008E0
:0102160002E5
:0102170000E6
:0102180000E5
:0102190002E2
:01021A0008DB
:01021B0002E0
:01021C0004DD
:01021D0000E0
:01021E0000DF
:01021F0008D6
:0102200000DD
:010221000AD2
:0102220000DB
:0102230008D2
:0102240000D9
:0102250000D8
:0102260008CF
:0102270002D4
:0102280000D5
:0102290000D4
:01022A000AC9
:01022B0000D2
:01022C0006CB
:01022D0000D0
:01022E0001CE
:01022F0000CE
:0102300008C5
:0102310002CA
:0102320004C7
:0102330002C8
:0102340000C9
:0102350004C4
:0102360000C7
:010237000ABC
:0102380000C5
:0102390002C2
:01023A0008BB
:01023B0001C1
:01023C0000C1
:01023D000AB6
:01023E0000BF
:01023F0006B8
:0102400000BD
:0102410000BC
:0102420002B9
:0102430008B2
:0102440000B9
:010245000AAE
:0102460000B7
:0102470005B1
:0102480002B3
:0102490000B4
:01024A0009AA
:01024B0000B2
:01024C0004AD
:01024D0000B0
:01024E0001AE
:01024F0008A6
:0102500002AB
:0102510008A4
:0102520001AA
:0102530000AA
:0102540001A8
:0102550000A8
:0102560004A3
:0102570000A6
:0102580000A5
:010259000A9A
:01025A0000A3
:01025B00049E
:01025C0001A0
:01025D0000A0
:01025E00009F
:01025F000599
:01026000009D
:01026100029A
:010262000893
:01026300009A
:010264000099
:010265000890
:010266000196
:010267000492
:010268000095
:010269000A8A
:01026A000093
:01026B00088A
:01026C000091
:01026D000987
:01026E00008F
:01026F000589
:01027000008D
:010271000884
:01027200008B
:010273000288
:010274000089
:010275000682
:010276000087
:010277000482
:010278000085
:01027900087C
:01027A000281
:01027B000082
:01027C00047D
:01027D000080
:01027E00017E
:01027F00047A
:010280000875
:01028100027A
:010282000477
:010283000179
:010284000079
:010285000474
:010286000077
:010287000175
:010288000075
:010289000074
:01028A000A69
:01028B000072
:01028C000170
:01028D00046C
:01028E00006F
:01028F00016D
:01029000006D
:010291000A62
:01029200006B
:010293000A60
:010294000069
:010295000662
:010296000067
:010297000264
:010298000065
:01029900085C
:01029A000063
:01029B000A58
:01029C000061
:01029D00065A
:01029E00005F
:01029F00015D
:0102A000005D
:0102A100005C
:0102A2000A51
:0102A300005A
:0102A4000950
:0102A5000058
:0102A6000552
:0102A7000056
:0102A8000055
:0102A900084C
:0102AA000053
:0102AB000250
:0102AC00044D
:0102AD000050
:0102AE00004F
:0102AF000A44
:0102B000004D
:0102B100004C
:0102B2000249
:0102B300004A
:0102B4000940
:0102B5000048
:0102B6000146
:0102B7000442
:0102B8000045
:0102B9000242
:0102BA000043
:0102BB000141
:0102BC000041
:0102BD000937
:0102BE00003F
:0102BF000836
:0102C000003D
:0102C1000834
:0102C2000239
:0102C3000436
:0102C4000039
:0102C5000830
:0102C6000037
:0102C700092D
:0102C8000233
:0102C900082C
:0102CA000132
:0102CB00082A
:0102CC000031
:0102CD00012F
:0102CE00042B
:0102CF00022C
:0102D0000825
:0102D100022A
:0102D2000427
:0102D3000129
:0102D4000029
:0102D5000127
:0102D6000423
:0102D7000125
:0102D8000025
:0102D9000024
:0102DA000023
:0102DB000A18
:0102DC000021
:0102DD00041C
:0102DE00021D
:0102DF000816
:0102E000021B
:0102E1000814
:0102E200011A
:0102E300001A
:0102E4000415
:0102E5000117
:0102E6000017
:0102E700090D
:0102E8000213
:0102E900080C
:0102EA000112
:0102EB00040E
:0102EC000011
:0102ED000010
:0102EE00020D
:0102EF00040A
:0102F000000D
:0102F100020A
:0102F200000B
:0102F3000109
:0102F4000009
:0102F5000107
:0102F6000007
:0102F70008FE
:0102F8000005
:0102F9000004
:0102FA0008FB
:0102FB000200
:0102FC000001
:0102FD0001FF
:0102FE0008F7
:0102FF0001FD
:0103000000FC
:0103010000FB
:0103020002F8
:0103030008F1
:0103040001F7
:0103050000F7
:0103060002F4
:0103070000F5
:0103080000F4
:0103090008EB
:01030A0002F0
:01030B0008E9
:01030C0002EE
:01030D0000EF
:01030E0000EE
:01030F0002EB
:0103100000EC
:0103110002E9
:0103120008E2
:0103130000E9
:0103140000E8
:0103150001E6
:0103160000E6
:0103170004E1
:0103180000E4
:0103190008DB
:01031A0002E0
:01031B0004DD
:01031C0001DF
:01031D0008D7
:01031E0002DC
:01031F0008D5
:0103200000DC
:0103210002D9
:0103220000DA
:0103230008D1
:0103240000D8
:0103250001D6
:0103260000D6
:0103270000D5
:0103280000D4
:010329000AC9
:01032A0000D2
:01032B0000D1
:01032C0002CE
:01032D0004CB
:01032E0000CE
:01032F0001CC
:0103300000CC
:0103310000CB
:010332000AC0
:0103330000C9
:0103340005C3
:0103350000C7
:0103360009BD
:0103370000C5
:0103380000C4
:0103390008BB
:01033A0000C2
:01033B0002BF
:01033C0000C0
:01033D0001BE
:01033E0008B6
:01033F0001BC
:0103400000BC
:0103410008B3
:0103420002B8
:0103430000B9
:0103440000B8
:0103450009AE
:0103460000B6
:010347000AAB
:0103480000B4
:0103490008AB
:01034A0002B0
:01034B0008A9
:01034C0000B0
:01034D0004AB
:01034E0000AE
:01034F0004A9
:0103500000AC
:0103510008A3
:0103520002A8
:0103530004A5
:0103540002A6
:0103550004A3
:0103560002A4
:01035700089D
:0103580000A4
:0103590002A1
:01035A0000A2
:01035B0001A0
:01035C000898
:01035D00029D
:01035E00009E
:01035F00019C
:01036000009C
:01036100009B
:010362000892
:010363000099
:010364000692
:010365000097
:010366000096
:010367000491
:01036800088C
:010369000093
:01036A00068C
:01036B000091
:01036C00018F
:01036D00048B
:01036E00028C
:01036F00008D
:01037000008C
:010371000289
:01037200008A
:010373000A7F
:010374000088
:010375000087
:010376000086
:010377000481
:010378000084
:01037900087B
:01037A000082
:01037B000879
:01037C000080
:01037D000877
:01037E00027C
:01037F000479
:01038000027A
:010381000873
:010382000179
:010383000079
:010384000474
:010385000176
:010386000472
:010387000273
:01038800086C
:010389000271
:01038A00046E
:01038B000071
:01038C00026E
:01038D000867
:01038E00006E
:01038F00026B
:01039000006C
:010391000269
:01039200006A
:010393000168
:010394000860
:010395000067
:010396000066
:01039700065F
:010398000064
:010399000A59
:01039A000062
:01039B00045D
:01039C00015F
:01039D00045B
:01039E00025C
:01039F00005D
:0103A000005C
:0103A100005B
:0103A2000258
:0103A3000059
:0103A400094F
:0103A5000057
:0103A600084E
:0103A7000154
:0103A800084C
:0103A9000251
:0103AA00044E
:0103AB000150
:0103AC000050
:0103AD00004F
:0103AE00014D
:0103AF000845
:0103B000024A
:0103B100004B
:0103B2000149
:0103B3000049
:0103B4000048
:0103B5000047
:0103B6000046
:0103B7000243
:0103B8000044
:0103B9000A39
:0103BA000042
:0103BB000839
:0103BC00013F
:0103BD00003F
:0103BE00043A
:0103BF00013C
:0103C000003C
:0103C1000A31
:0103C200003A
:0103C3000930
:0103C4000038
:0103C5000235
:0103C600082E
:0103C7000035
:0103C800082C
:0103C9000033
:0103CA00062C
:0103CB000031
:0103CC00052B
:0103CD00002F
:0103CE00002E
:0103CF000528
:0103D000002C
:0103D1000229
:0103D200002A
:0103D3000128
:0103D4000820
:0103D5000027
:0103D6000026
:0103D7000223
:0103D8000024
:0103D9000221
:0103DA00081A
:0103DB000021
:0103DC000818
:0103DD00001F
:0103DE00001E
:0103DF00011C
:0103E000001C
:0103E1000219
:0103E2000812
:0103E3000019
:0103E4000414
:0103E5000215
:0103E600080E
:0103E7000015
:0103E8000014
:0103E900080B
:0103EA000210
:0103EB000809
:0103EC00020E
:0103ED00000F
:0103EE00000E
:0103EF00010C
:0103F000000C
:0103F1000803
:0103F2000208
:0103F3000405
:0103F4000008
:0103F5000601
:0103F6000006
:0103F70006FF
:0103F8000AFA
:0103F9000003
:0103FA0005FD
:0103FB000001
:0103FC000000
:0103FD0006F9
:0103FE0000FE
:0103FF0005F8
:00000001FF
